:020000040800F2
:10000000E80500209D010008D9240008EB0800083D
:10001000D5240008B5050008A72F0008000000003F
:10002000000000000000000000000000D5260008CD
:10003000F5050008000000006925000805280008F3
:10004000B7010008B7010008B7010008B7010008B0
:10005000B7010008B7010008B7010008B7010008A0
:10006000B7010008B7010008B7010008B701000890
:10007000B7010008B7010008B7010008B701000880
:10008000B7010008B7010008B7010008B701000870
:10009000B7010008B7010008B7010008F90500081A
:1000A000B7010008B7010008B7010008B701000850
:1000B0005D290008B7010008B7010008B701000872
:1000C000B7010008B7010008B7010008B701000830
:1000D000B7010008B7010008B7010008B701000820
:1000E000B7010008B7010008B7010008B701000810
:1000F000B7010008B7010008B7010008B701000800
:10010000B7010008B7010008B7010008B7010008EF
:10011000B7010008B7010008B7010008B7010008DF
:10012000B7010008B7010008B7010008B7010008CF
:10013000B7010008B7010008B7010008B7010008BF
:10014000B7010008B7010008B7010008B7010008AF
:10015000B7010008B7010008B7010008052D000825
:10016000B7010008B7010008B7010008B70100088F
:10017000B7010008B7010008B7010008B70100087F
:10018000B7010008B7010008DFF80CD000F0B6F99D
:1001900000480047D1330008E805002006488047A2
:1001A00006480047FEE7FEE7FEE7FEE7FEE7FEE75C
:1001B000FEE7FEE7FEE7FEE7812800088901000868
:1001C00040EA01039B0703D009E008C9121F08C0D9
:1001D000042AFAD203E011F8013B00F8013B521E59
:1001E000F9D270472DE9FE4F804681EA0300C00F27
:1001F0000C46009021F0004123F00045B8EB0200CE
:10020000A94105D24046214690461C460B4602466F
:1002100023F00040104347D0270DC7F30A00C3F373
:100220000A510290401A019040286BDAC3F3130080
:1002300040F4801B0098924620B10023D2EB030AC1
:1002400063EB0B0B01985946C0F14002504600F099
:100250009FF806460D4650465946019A00F0A7F809
:1002600010EB08006141002487EA115284EAE77329
:100270001A4340D0009A62B3019A012A4FEA07520A
:1002800015DC001B61EB02014FF0004202EA07524D
:10029000CDE90042001C41F5801132462B4600F0AA
:1002A000DEF803B0BDE8F08F40462146F9E7001BB9
:1002B00061EB0201001C41F5801300185B4120181E
:1002C000A2F5001747EB030140EAD570B6196D415E
:1002D00011E06D084FEA360645EAC0754FEA07524D
:1002E000001B61EB0201001C41F5801149084FEA37
:1002F00030000019514132462B4603B0BDE8F04FA3
:1003000000F09EB80098012240000023D0EB0202CA
:1003100063EBE073009821464FEAE074B8EB00000D
:1003200061EB0401E9E783F000435BE781F0004102
:1003300058E700F0004230F000400AD0C10D01F54E
:100340006071C0F3160042EA0151C2084007114330
:10035000704700200146704701F0004330B421F09F
:10036000004150EA010206D00A0DA2F56072C1F305
:100370001301002A02DC30BC00207047440F44EA1D
:10038000C104C100E01830BC00EBC25000F021B83D
:10039000202A04DB203A00FA02F100207047914045
:1003A000C2F1200320FA03F3194390407047202A3A
:1003B00006DBCB17203A41FA02F043EAE07306E08D
:1003C00041FA02F3D040C2F120029140084319469D
:1003D00070470029A8BF7047401C490008BF20F0A3
:1003E0000100704710B4B0FA80FC00FA0CF050EA3B
:1003F000010404BF10BC704749B1CCF1200421FABC
:1004000004F411FA0CF118BF012121430843A3EBB6
:100410000C01CB1D4FEA00614FEA102042BF0020C3
:1004200010BC704700EBC35010440029A4BF10BC9F
:100430007047401C490008BF20F0010010BC704705
:1004400010B5141E73F1000408DA401C41F10001DC
:1004500092185B411A4301D120F0010010BD2DE933
:10046000F04D92469B4611B1B1FA81F202E0B0FA2A
:1004700080F220329046FFF78BFF04460F4640EA99
:100480000A0041EA0B0153465A46084313D011466D
:1004900053EA010019D0C8F14002504600F040F87C
:1004A00005460E46504659464246FFF771FF08433F
:1004B00005D0012004E020463946BDE8F08D00203B
:1004C000054346EAE0762C4337430A986305E40A7D
:1004D000A0EB08000022FD0A44EA47540A3002D586
:1004E00000200146E9E7010510196941DDE90845E9
:1004F00000196941BDE8F04DA2E70000064C074D28
:1005000006E0E06840F0010394E8070098471034E3
:10051000AC42F6D3FFF73CFE4422050864220508EE
:10052000202A04DB203A21FA02F00021704721FA48
:1005300002F3D040C2F120029140084319467047AF
:1005400000B585B00121402002F010F80121880398
:1005500002F03CF800208DF8080001208DF80B0017
:100560002020019001A9124800F047F9052106203A
:1005700002F0B2F82020039000208DF810000C202B
:100580008DF8110001208DF8120003A800F05EF82C
:1005900017208DF800000F208DF801008DF8020063
:1005A00001208DF80300684601F098FF05B000BDFA
:1005B0000018024000BFFEE710B500F04FFA4F20D0
:1005C00000F024FA00F0D4F9044600F061FA204665
:1005D00010BD10B5044600F041FAE10901F03E01FA
:1005E00041F0400000F012FAE0B200F00FFA00F023
:1005F0004FFA10BD7047000010B5202000F012F82F
:1006000030B1202000F008F8FFF7D6FF014908704C
:1006100010BD00001900002001490860704700006B
:10062000143C0140014600200022074B1B6803EAEE
:100630000102054B14331B680B4013B10AB10120B2
:1006400000E0002070470000003C014000212349E9
:100650008279002A3AD00A46126803689A430B4608
:100660001A600A1D126803689A430B1D1A6002790A
:1006700011440A6803681A430A60184A083212686B
:1006800003689A43154B08331A601A1D12680368F1
:100690009A43124B0C331A604279102A0ED11A1F5A
:1006A000126803681A430D4B08331A601A1D12684A
:1006B00003681A43094B0C331A600DE0074942796D
:1006C00011440A6803681A430A6005E0027911447C
:1006D0000A6803689A430A6070470000003C0140C2
:1006E00051B18200A2F1C042126842F001038200BF
:1006F000A2F1C042136009E08200A2F1C042126878
:10070000034B1A408300A3F1C0431A6070470000F6
:10071000FEFF0F00D0E901121143C26811430269C4
:1007200011434269114382691143C2691143026A4C
:100730001143426A1143826A1143C26A1143026B38
:10074000114302689200A2F1C04211608168082939
:100750000BD101688900A1F1C041096841F0400254
:1007600001688900A1F1C0410A60416B0968426BD0
:10077000526841EA0211426B926841EA0221426BDF
:10078000928941EA0241426B128A41EA0251426B6C
:10079000127D41EA0261426B926911430268521C68
:1007A0009200A2F1C0421160C16AB1F5804F1BD125
:1007B000816B0968826B526841EA0211826B926810
:1007C00041EA0221826B128A41EA0251826B127D58
:1007D00041EA0261826B9269114302689200A2F1C0
:1007E000C042C2F8041107E06FF07042016889004E
:1007F000A1F1C041C1F804217047F0B50A460021BB
:100800000023002400BF3DE0012505FA01F315682F
:1008100005EA03049C4234D105684F000326BE401C
:10082000B543056015794E00B5400668354305604F
:100830001579012D02D01579022D16D185684F004A
:100840000326BE40B543856055794E00B5408668A5
:1008500035438560456801268E40B543456045684F
:1008600096798E40B6B235434560C5684F00032681
:10087000BE40B543C560D5794E00B540C668354326
:10088000C560491C1029BFD3F0BDF0B5002300247A
:100890004D07ED0E02FA05F3CE1000F1200555F8D4
:1008A00026504E07F70E0F26BE40B543CF1000F17D
:1008B000200646F82750CE1000F1200555F82650A6
:1008C00045EA0304CE1000F1200545F82640F0BDAE
:1008D0000246002013690B400BB1012000E000200C
:1008E0007047418370470183704700BFFEE70000F7
:1008F0001CB50121402001F039FE14200090012098
:100900008DF8040000208DF8060002208DF8050007
:1009100001208DF8070069460248FFF76EFF00F0DE
:10092000B7F81CBD0018024010B5142400F046F8BA
:1009300000F0C2F804210D48FFF7D5FF00F0BCF825
:1009400004E0601EC4B20CB900F0A2F81021074800
:10095000FFF7BEFF0028F4D104210448FFF7C1FFD0
:1009600000F03EF800F0A8F810BD000000180240AA
:1009700070B5002400F022F8002516E06006040E91
:1009800004210D48FFF7AFFF00F096F810210A4848
:10099000FFF79EFF08B144F0010404210648FFF769
:1009A000A0FF00F089F8681CC5B2082DE6DB00F056
:1009B00017F8204670BD0000001802401CB510203A
:1009C000009000208DF807008DF806008DF80400D7
:1009D00069460248FFF711FF1CBD000000180240E5
:1009E0001CB51020009001208DF8070000208DF824
:1009F000060001208DF8040002208DF805006946EC
:100A00000148FFF7FAFE1CBD0018024070B504460D
:100A100000251BE004F0800020B110210E48FFF7F4
:100A200062FF03E010210C48FFF75BFF6006040E35
:100A300004210948FFF757FF00F03EF8042106485B
:100A4000FFF74FFF00F038F8681CC5B2082DE1DB56
:100A5000FFF76AFF70BD00000018024010B51021BA
:100A60000A48FFF740FF04210848FFF73CFF00F069
:100A700023F810210548FFF734FF00F01DF804218A
:100A80000248FFF72EFF00F017F810BD00180240D3
:100A900010B504210748FFF726FF10210548FFF78E
:100AA00020FF00F009F810210248FFF71CFF00F0BA
:100AB00003F810BD0018024010B50A2002F074FCC3
:100AC00010BD00001CB50121202001F04FFD4FF4A6
:100AD000E060009000208DF8040003208DF80500F0
:100AE00001208DF8070069460148FFF786FE1CBD0E
:100AF0000014024038B50020009000244FF48071AB
:100B00003848FFF7E5FE8DF800004FF400713548D6
:100B1000FFF7DEFE8DF801004FF480613148FFF7EA
:100B2000D7FE8DF802003048007800284AD09DF8A2
:100B3000000028B19DF8010010B19DF80200E8BB4B
:100B4000002029490870642002F024FC4FF48071D1
:100B50002448FFF7BDFE8DF800004FF400712148D6
:100B6000FFF7B6FE8DF801004FF480611D48FFF7D6
:100B7000AFFE8DF802009DF8000040B99DF801001D
:100B8000012804D19DF80200012800D101249DF81C
:100B90000000012807D19DF8010020B99DF802004E
:100BA000012800D102249DF80000012818D19DF8E9
:100BB0000100012814D19DF8020000E002E078B99C
:100BC00003240DE09DF80000012809D19DF80100E3
:100BD000012805D19DF80200012801D102490870C1
:100BE000204638BD001402404000002070B5044685
:100BF000002609480588408845430021084601F041
:100C000083FA01F0FBFB00BF02E004480480761C7D
:100C1000AE42FAD370BD0000D60100200010006C77
:100C200010B50446F4B900201F498871F0200880EF
:100C30004FF4A07048800846808845F210518842E1
:100C40002ED14FF43050184908814FF42850488174
:100C50004FF42C5088814FF4F07008804FF44870A6
:100C600048801DE00120104988714FF4A070088071
:100C7000F02048800846808845F2105188420FD104
:100C80004FF43050084908814FF4285048814FF400
:100C90002C5088814FF4487008804FF4F0704880E1
:100CA000032001F095F910BDD601002070B505466E
:100CB0000E4614463146284601F026FA01F09EFB06
:100CC000204601F095FB70BD2DE9F04304460D462A
:100CD00016461F46DDF81C90C846002014490880BF
:100CE0001EE000201349088010E038F8022B104B5A
:100CF0001B882B4499B20F4B1B88234498B2FFF7F3
:100D0000D5FF0C480088401C0A490880301B09495F
:100D100009888842E9DC06480088401C04490880AC
:100D2000781B034909888842DBDCBDE8F0830000BA
:100D3000440000204200002070B505460E461446CF
:100D40003146284601F0E0F901F058FB01480480E3
:100D500070BD00000010006C10B503460C4616482C
:100D6000808845F2105188421FD11349488901F00B
:100D700039FB181201F030FB0F494989491C88B230
:100D800001F030FBD8B201F027FB0B49888901F054
:100D900029FB201201F020FB07498989491C88B2F0
:100DA00001F020FBE0B201F017FB03480089034982
:100DB0000880881C028010BDD6010020FE0F006C48
:100DC00000B5A1B0002020900121084601F0CEFB23
:100DD0004FF400701E9001208DF87C0000208DF8EB
:100DE0007E0003208DF87D0002208DF87F001EA973
:100DF000FE48FFF702FD0121782001F0B7FB012139
:100E0000084601F0C3FB4CF233701E9002208DF8AF
:100E10007C0000208DF87E0003208DF87D000120ED
:100E20008DF87F001EA9F248FFF7E7FC4FF68070AF
:100E30001E9002208DF87C0000208DF87E0003209B
:100E40008DF87D0001208DF87F001EA9E948FFF78D
:100E5000D4FC02201E908DF87C0000208DF87E00CE
:100E600003208DF87D0001208DF87F001EA9E24847
:100E7000FFF7C3FC4FF480501E9002208DF87C00D9
:100E800000208DF87E0003208DF87D0001208DF874
:100E90007F001EA9D848FFF7B0FC0C220021D448DF
:100EA000FFF7F3FC0C220121D148FFF7EEFC0C22E6
:100EB0000421CF48FFF7E9FC0C220521CC48FFF7BD
:100EC000E4FC0C220821CA48FFF7DFFC0C220921B0
:100ED000C748FFF7DAFC0C220A21C548FFF7D5FC0A
:100EE0000C220E21C248FFF7D0FC0C220F21C04873
:100EF000FFF7CBFC0C220721BE48FFF7C6FC0C22F3
:100F00000821BC48FFF7C1FC0C220921B948FFF7B2
:100F1000BCFC0C220A21B748FFF7B7FC0C220B21BE
:100F2000B448FFF7B2FC0C221146B248FFF7ADFC03
:100F30000C220D21AF48FFF7A8FC0C220E21AD4872
:100F4000FFF7A3FC0C220F21AA48FFF79EFC0C22FE
:100F50000121A948FFF799FC0C221146A648FFF78A
:100F600094FC0F200890002009903C200A9000205B
:100F70000B900C900D900E90092001900020029093
:100F8000082003900020049005900690079006200A
:100F90000F900020109011901020129000201390BC
:100FA00015901490169017904FF4805018900020D0
:100FB00019904FF480401A9000201B9008A81C90B4
:100FC00001A81D900FA8FFF7A5FB01210620FFF740
:100FD00087FB642001F024FA4FF45A4001F002FA32
:100FE00000F0ECFF854988804FF45B4001F0FAF98E
:100FF00000F0E4FF81498880084680884FF6FF7141
:1010000001EA00207D4988804FF45C4001F0EAF954
:1010100000F0D4FF794989880843784988800846D8
:101020008088B0F5004F02D145F210508880734897
:10103000808845F2105188421CD17148006820F028
:101040000F004FF02041C1F81C010846D0F81C01E8
:1010500020F47060C1F81C010846D0F81C0140F073
:101060000300C1F81C010846D0F81C0140F40070D0
:10107000C1F81C016148808845F2105188427DD139
:1010800055214FF4704001F0C3F9AA214FF201003D
:1010900001F0BEF952214FF2020001F0B9F9082126
:1010A0004FF2030001F0B4F901214FF2040001F006
:1010B000AFF90D214FF4304001F0AAF90D214BF2A8
:1010C000010001F0A5F90D214BF2020001F0A0F999
:1010D00034214FF4364001F09BF934214BF201608A
:1010E00001F096F934214BF2026001F091F90D21E3
:1010F0004FF4314001F08CF90D214BF2011001F059
:1011000087F90D214BF2021001F082F934214FF4DE
:10111000374001F07DF934214BF2017001F078F98C
:1011200034214BF2027001F073F900214FF4324088
:1011300001F06EF900214BF2012001F069F9002164
:101140004BF2022001F064F924214FF4384001F001
:101150005FF924214BF6010001F05AF924214BF6E6
:10116000020001F055F901214FF43F4001F050F920
:101170000F214FF4334001F04BF900E0FEE30F2163
:101180004BF2013001F044F90F214BF2023001F033
:101190003FF934214FF4394001F03AF934214BF64C
:1011A000011001F035F934214BF6021001F030F94D
:1011B00008214FF4354001F02BF908214BF2015082
:1011C00001F026F908214BF2025001F021F9032128
:1011D0004FF4424001F01CF924214FF43A4001F051
:1011E00017F924214BF601200CE00000000002401A
:1011F000000C02400010024000180240D6010020FE
:101200001C0100A001F004F924214BF6022001F09A
:10121000FFF800214FF43C4001F0FAF878214BF63A
:10122000014001F0F5F800214BF6024001F0F0F822
:1012300000214FF43D4001F0EBF878214BF60150CE
:1012400001F0E6F800214BF6025001F0E1F8002130
:101250004FF43E4001F0DCF864214BF6016001F0F0
:10126000D7F800214FF4514001F0D2F833214DF26C
:10127000011001F0CDF800214DF2021001F0C8F884
:1012800034214DF2031001F0C3F800214DF2041097
:1012900001F0BEF83A214DF2051001F0B9F8002135
:1012A0004DF2061001F0B4F84A214DF2071001F09A
:1012B000AFF800214DF2081001F0AAF85C214DF2C0
:1012C000091001F0A5F800214DF20A1001F0A0F874
:1012D00081214DF20B1001F09BF800214DF20C1012
:1012E00001F096F8A6214DF20D1001F091F80021C1
:1012F0004DF20E1001F08CF8E5214DF20F1001F0C7
:1013000087F801214DF2101001F082F813214DF2FF
:10131000111001F07DF801214DF2121001F078F862
:1013200054214DF2131001F073F801214DF2141005
:1013300001F06EF882214DF2151001F069F80121DB
:101340004DF2161001F064F8CA214DF2171001F0A9
:101350005FF802214DF2181001F05AF800214DF209
:10136000191001F055F802214DF21A1001F050F851
:1013700001214DF21B1001F04BF802214DF21C101F
:1013800001F046F834214DF21D1001F041F8022120
:101390004DF21E1001F03CF867214DF21F1001F0D4
:1013A00037F802214DF2201001F032F884214DF27D
:1013B000211001F02DF802214DF2221001F028F841
:1013C000A4214DF2231001F023F802214DF2241044
:1013D00001F01EF8B7214DF2251001F019F8022195
:1013E0004DF2261001F014F8CF214DF2271001F034
:1013F0000FF802214DF2281001F00AF8DE214DF21B
:10140000291001F005F802214DF22A1001F000F830
:10141000F2214DF22B1000F0FBFF02214DF22C10B7
:1014200000F0F6FFFE214DF22D1000F0F1FF032138
:101430004DF22E1000F0ECFF10214DF22F1000F0B5
:10144000E7FF03214DF2301000F0E2FF33214DF2AF
:10145000311000F0DDFF03214DF2321000F0D8FF13
:101460006D214DF2331000F0D3FF00214FF45240B4
:1014700000F0CEFF33214DF2012000F0C9FF002122
:101480004DF2022000F0C4FF34214DF2032000F0A1
:10149000BFFF00214DF2042000F0BAFF3A214DF2C7
:1014A000052000F0B5FF00214DF2062000F0B0FF4E
:1014B0004A214DF2072000F0ABFF00214DF2082039
:1014C00000F0A6FF5C214DF2092000F0A1FF0021F1
:1014D0004DF20A2000F09CFF81214DF20B2000F01C
:1014E00097FF00214DF20C2000F092FFA6214DF253
:1014F0000D2000F08DFF00214DF20E2000F088FF3E
:10150000E5214DF20F2000F083FF01214DF2102064
:1015100000F07EFF13214DF2112000F079FF012130
:101520004DF2122000F074FF54214DF2132000F010
:101530006FFF01214DF2142000F06AFF82214DF26D
:10154000152000F065FF01214DF2162000F060FF2C
:10155000CA214DF2172000F05BFF02214DF2182046
:1015600000F056FF00214DF2192000F051FF02213A
:101570004DF21A2000F04CFF01214DF21B2000F02B
:1015800047FF02214DF21C2000F042FF34214DF2B2
:101590001D2000F03DFF02214DF21E2000F038FF1B
:1015A00067214DF21F2000F033FF02214DF2202071
:1015B00000F02EFF84214DF2212000F029FF0221AE
:1015C0004DF2222000F024FFA4214DF2232000F050
:1015D0001FFF02214DF2242000F01AFFB7214DF227
:1015E000252000F015FF02214DF2262000F010FF0B
:1015F000CF214DF2272000F00BFF02214DF22820D1
:1016000000F006FFDE214DF2292000F001FF02214B
:101610004DF22A2000F0FCFEF2214DF22B2000F0CA
:10162000F7FE02214DF22C2000F0F2FEFE214DF2D9
:101630002D2000F0EDFE03214DF22E2000F0E8FEFB
:1016400010214DF22F2000F0E3FE03214DF2302057
:1016500000F0DEFE33214DF2312000F0D9FE0321EF
:101660004DF2322000F0D4FE6D214DF2332000F017
:10167000CFFE00214FF4534000F0CAFE33214DF25B
:10168000013000F0C5FE00214DF2023000F0C0FE36
:1016900034214DF2033000F0BBFE00214DF2043046
:1016A00000F0B6FE3A214DF2053000F0B1FE002107
:1016B0004DF2063000F0ACFE4A214DF2073000F04A
:1016C000A7FE00214DF2083000F0A2FE5C214DF291
:1016D000093000F09DFE00214DF20A3000F098FE26
:1016E00081214DF20B3000F093FE00214DF20C30C1
:1016F00000F08EFEA6214DF20D3000F089FE002193
:101700004DF20E3000F084FEE5214DF20F3000F076
:101710007FFE01214DF2103000F07AFE13214DF2D0
:10172000113000F075FE01214DF2123000F070FE14
:1017300054214DF2133000F06BFE01214DF21430B4
:1017400000F066FE82214DF2153000F061FE0121AD
:101750004DF2163000F05CFECA214DF2173000F059
:1017600057FE02214DF2183000F052FE00214DF2DA
:10177000193000F04DFE02214DF21A3000F048FE03
:1017800001214DF21B3000F043FE02214DF21C30CE
:1017900000F03EFE34214DF21D3000F039FE0221F2
:1017A0004DF21E3000F034FE67214DF21F3000F084
:1017B0002FFE02214DF2203000F02AFE84214DF24E
:1017C000213000F025FE02214DF2223000F020FEF3
:1017D000A4214DF2233000F01BFE02214DF22430F3
:1017E00000F016FEB7214DF2253000F011FE022167
:1017F0004DF2263000F00CFECF214DF2273000F0E4
:1018000007FE02214DF2283000F002FEDE214DF2EB
:10181000293000F0FDFD02214DF22A3000F0F8FDE4
:10182000F2214DF22B3000F0F3FD02214DF22C306D
:1018300000F0EEFDFE214DF22D3000F0E9FD032118
:101840004DF22E3000F0E4FD10214DF22F3000F06B
:10185000DFFD03214DF2303000F0DAFD33214DF28F
:10186000313000F0D5FD03214DF2323000F0D0FDD3
:101870006D214DF2333000F0CBFD00214FF4544088
:1018800000F0C6FD33214DF2014000F0C1FD002102
:101890004DF2024000F0BCFD34214DF2034000F057
:1018A000B7FD00214DF2044000F0B2FD3A214DF2A7
:1018B000054000F0ADFD00214DF2064000F0A8FD0E
:1018C0004A214DF2074000F0A3FD00214DF20840EF
:1018D00000F09EFD5C214DF2094000F099FD0021D1
:1018E0004DF20A4000F094FD81214DF20B4000F0D2
:1018F0008FFD00214DF20C4000F08AFDA6214DF233
:101900000D4000F085FD00214DF20E4000F080FDFD
:10191000E5214DF20F4000F07BFD01214DF210401A
:1019200000F076FD13214DF2114000F071FD012110
:101930004DF2124000F06CFD54214DF2134000F0C6
:1019400067FD01214DF2144000F062FD82214DF24D
:10195000154000F05DFD01214DF2164000F058FDEC
:10196000CA214DF2174000F053FD02214DF21840FC
:1019700000F04EFD00214DF2194000E00EE300F0B2
:1019800047FD02214DF21A4000F042FD01214DF2C7
:101990001B4000F03DFD02214DF21C4000F038FDDF
:1019A00034214DF21D4000F033FD02214DF21E4066
:1019B00000F02EFD67214DF21F4000F029FD0221AD
:1019C0004DF2204000F024FD84214DF2214000F032
:1019D0001FFD02214DF2224000F01AFDA4214DF21C
:1019E000234000F015FD02214DF2244000F010FDCF
:1019F000B7214DF2254000F00BFD02214DF22640AB
:101A000000F006FDCF214DF2274000F001FD02213C
:101A10004DF2284000F0FCFCDE214DF2294000F0A0
:101A2000F7FC02214DF22A4000F0F2FCF2214DF2C7
:101A30002B4000F0EDFC02214DF22C4000F0E8FCC0
:101A4000FE214DF22D4000F0E3FC03214DF22E402B
:101A500000F0DEFC10214DF22F4000F0D9FC0321F4
:101A60004DF2304000F0D4FC33214DF2314000F013
:101A7000CFFC03214DF2324000F0CAFC6D214DF243
:101A8000334000F0C5FC00214FF4554000F0C0FC8D
:101A900033214DF2015000F0BBFC00214DF2025009
:101AA00000F0B6FC34214DF2035000F0B1FC0021EF
:101AB0004DF2045000F0ACFC3A214DF2055000F01C
:101AC000A7FC00214DF2065000F0A2FC4A214DF285
:101AD000075000F09DFC00214DF2085000F098FCEA
:101AE0005C214DF2095000F093FC00214DF20A50A8
:101AF00000F08EFC81214DF20B5000F089FC00219A
:101B00004DF20C5000F084FCA6214DF20D5000F077
:101B10007FFC00214DF20E5000F07AFCE5214DF2E1
:101B20000F5000F075FC01214DF2105000F070FCD8
:101B300013214DF2115000F06BFC01214DF21250B7
:101B400000F066FC54214DF2135000F061FC0121BD
:101B50004DF2145000F05CFC82214DF2155000F063
:101B600057FC01214DF2165000F052FCCA214DF2F3
:101B7000175000F04DFC02214DF2185000F048FCC7
:101B800000214DF2195000F043FC02214DF21A5091
:101B900000F03EFC01214DF21B5000F039FC022107
:101BA0004DF21C5000F034FC34214DF21D5000F079
:101BB0002FFC02214DF21E5000F02AFC67214DF24D
:101BC0001F5000F025FC02214DF2205000F020FCB7
:101BD00084214DF2215000F01BFC02214DF22250D5
:101BE00000F016FCA4214DF2235000F011FC02215C
:101BF0004DF2245000F00CFCB7214DF2255000F0BE
:101C000007FC02214DF2265000F002FCCF214DF2DC
:101C1000275000F0FDFB02214DF2285000F0F8FBA8
:101C2000DE214DF2295000F0F3FB02214DF22A5043
:101C300000F0EEFBF2214DF22B5000F0E9FB022107
:101C40004DF22C5000F0E4FBFE214DF22D5000F03F
:101C5000DFFB03214DF22E5000F0DAFB10214DF294
:101C60002F5000F0D5FB03214DF2305000F0D0FB97
:101C700033214DF2315000F0CBFB03214DF23250B5
:101C800000F0C6FB6D214DF2335000F0C1FB002186
:101C90004FF4564000F0BCFB33214DF2016000F0E0
:101CA000B7FB00214DF2026000F0B2FB34214DF28F
:101CB000036000F0ADFB00214DF2046000F0A8FBD2
:101CC0003A214DF2056000F0A3FB00214DF20660C1
:101CD00000F09EFB4A214DF2076000F099FB0021C5
:101CE0004DF2086000F094FB5C214DF2096000F0B9
:101CF0008FFB00214DF20A6000F08AFB81214DF23A
:101D00000B6000F085FB00214DF20C6000F080FBC1
:101D1000A6214DF20D6000F07BFB00214DF20E601C
:101D200000F076FBE5214DF20F6000F071FB012120
:101D30004DF2106000F06CFB13214DF2116000F0C9
:101D400067FB01214DF2126000F062FB54214DF25D
:101D5000136000F05DFB01214DF2146000F058FBB0
:101D600082214DF2156000F053FB01214DF2166007
:101D700000F04EFBCA214DF2176000F049FB022132
:101D80004DF2186000F044FB00214DF2196000F0A4
:101D90003FFB02214DF21A6000F03AFB01214DF2A7
:101DA0001B6000F035FB02214DF21C6000F030FB9F
:101DB00034214DF21D6000F02BFB02214DF21E601C
:101DC00000F026FB67214DF21F6000F021FB02218D
:101DD0004DF2206000F01CFB84214DF2216000F0E8
:101DE00017FB02214DF2226000F012FBA4214DF2FC
:101DF000236000F00DFB02214DF2246000F008FB8F
:101E0000B7214DF2256000F003FB02214DF2266060
:101E100000F0FEFACF214DF2276000F0F9FA02211E
:101E20004DF2286000F0F4FADE214DF2296000F056
:101E3000EFFA02214DF22A6000F0EAFAF2214DF2A7
:101E40002B6000F0E5FA02214DF22C6000F0E0FA80
:101E5000FE214DF22D6000F0DBFA03214DF22E60E1
:101E600000F0D6FA10214DF22F6000F0D1FA0321D4
:101E70004DF2306000F0CCFA33214DF2316000F0C9
:101E8000C7FA03214DF2326000F0C2FA6D214DF223
:101E9000336000F0BDFA55214FF4704000F0B8FAFD
:101EA000AA214FF2010000F0B3FA52214FF20200D2
:101EB00000F0AEFA08214FF2030000F0A9FA002169
:101EC0004FF2040000F0A4FACC214FF4314000F0AE
:101ED0009FFA00214BF2011000F09AFA05214FF40D
:101EE000364000F095FA70214FF4374000F090FA38
:101EF00070214BF2017000F08BFA01214FF4384051
:101F000000F086FA03214BF6010000F081FA03216C
:101F10004BF6020000F07CFA03214BF6030000F0C0
:101F200077FA02214FF43C4000F072FA00214BF6A0
:101F3000014000F06DFA00214BF6024000F068FA13
:101F4000D0214FF4494000F063FA02214CF6011011
:101F500000F05EFA50214CF6021000F059FA5021C0
:101F60004CF6031000F054FA50214CF6041000F027
:101F70004FFA00214FF4545000F04AFA55214FF423
:101F8000685000F045FA4FF4885000F02BFA7820A2
:101F900000F058FA4FF4245000F024FA0020FEF725
:101FA0003FFE4FF400710448FEF79DFC4FF6FF70B2
:101FB000FEF71CFE21B000BD0000024008B503483A
:101FC00000880090BDF8000008BD00000010006C03
:101FD00030B50446002300254A48808845F2105158
:101FE00088427CD1082C1CD2DFE804F00406090CDE
:101FF0000F12151800BF14E043F0800311E043F006
:1020000040030EE043F0C0030BE043F0200308E080
:1020100043F0600305E043F0A00302E043F0E00377
:1020200000BF00BF3748808845F21051884201D177
:102030004FF458553348808845F21051884201D0FA
:1020400043F008031946284600F0E2F92D4880883D
:1020500045F21051884253D12A49488900F0C2F90B
:10206000002000F0B9F927494989491C88B200F0DD
:10207000B9F9002000F0B0F922494989891C88B2D9
:1020800000F0B0F91F490988491EC1F30F2000F084
:10209000A3F91C494989C91C88B200F0A3F9194960
:1020A0000978491EC8B200F097F91649888900F0EE
:1020B00099F9002000F090F912498989491C88B2E9
:1020C00000F090F9002000F087F90E498989891CF9
:1020D00088B200F087F90B494988491E00E00FE0FB
:1020E000C1F30F2000F078F906498989C91C88B22C
:1020F00000F078F903498978491EC8B200F06CF9FC
:1021000030BD0000D601002000B502460B46134842
:10211000808845F2105188421FD11049488900F04B
:1021200061F9101200F058F90C494989491C88B22C
:1021300000F058F9D0B200F04FF90849888900F052
:1021400051F9181200F048F904498989491C88B2EC
:1021500000F048F9D8B200F03FF900BDD6010020E8
:102160002DE9F84F80460E4617461C46B3462046DA
:10217000E31704EB5373DB1021464FEAE47C04EBD6
:102180005C7C4FEAEC0CA4EBCC0CBCF1000F02D051
:102190004FF0010C01E04FF0000C6344224604EBC9
:1021A000D27C4FEA6C0C03FB0CF3DBB20093A7F17B
:1021B0002000C7B2002552E00C2C07D107EB4700E6
:1021C000294901EB800010F8059013E0102C05D18F
:1021D000264800EB071010F805900BE0182C07D1EB
:1021E00007EBC700224901EB800010F8059001E0E1
:1021F000BDE8F88F4FF0000A2BE009F0800028B10D
:10220000314640460A9AFEF7A7FD04E031464046B3
:102210000B9AFEF7A1FD4FEA49604FEA1069701C66
:1022200086B214484088B04200DCE1E7A6EB0B0020
:10223000A0420AD15E4608F101001FFA80F80D485D
:102240000088404500DCD3E706E00AF1010000F019
:10225000FF0ABAF1080FD0DB00BF681CC5B20098B6
:102260008542A9DB00BFC3E7840A0508F80E05080C
:10227000E8140508D60100202DE9FC4305460C466C
:1022800016461F46DDF824904FF010080E480088CF
:10229000A84203DA002504EB080084B20A4840880B
:1022A000A04206DA0020054604464FF6FF70FEF70E
:1022B0009DFCCDE900793278434621462846FFF758
:1022C0004FFFBDE8FC830000D60100202DE9F04F50
:1022D0008BB006460F4690469A464FF0000900BF65
:1022E00000BF98F80000029098F801000190019852
:1022F000A0F1A1010298A138C0EB001202EB40103E
:1023000001EB40004FEA401B1E4858440090002457
:1023100006E00BEB04001B49085C03A90855641C8C
:10232000202CF6DB002428E003A810F814904FF6C8
:10233000FF7000EA09296000401C03A9085C40EA1C
:102340000909002516E0C5F10F0049FA00F000F078
:10235000010038B13A1991B2721990B25246FEF7A3
:10236000EBFC06E03A1991B2721990B2149AFEF79A
:10237000E3FC6D1C102DE6DB641C102CD4DB0BB0D1
:10238000BDE8F08F24F500082DE9F84105460F4619
:1023900014469846079E19E02078A1280BDD434695
:1023A0002246394628460096FFF790FFA41C05F107
:1023B000100085B20AE04346224639462846009678
:1023C000FFF75AFF641C05F1080085B22078002849
:1023D000E2D1BDE8F88100000149088070470000A3
:1023E0000010006C0149088070470000FE0F006C6F
:1023F00001490880704700000010006C0248008905
:102400000249088070470000D6010020FE0F006CD2
:10241000024A1080921C118070470000FE0F006C71
:1024200008B50AE00021009102E00099491C0091E2
:1024300044F6206200999142F7D3011EA0F10100F9
:10244000F0D108BD002106E0082100BF0A1EA1F15D
:10245000010399B2FAD1021EA0F10100F4D1704734
:102460001CB50121202000F081F8FF200090012000
:102470008DF8040000208DF8060003208DF805007B
:1024800000208DF8070069461148FEF7B6F90121D2
:102490000F48FEF728FA02210D48FEF724FA04211E
:1024A0000B48FEF720FA08210948FEF71CFA102114
:1024B0000748FEF718FA20210548FEF714FA4021D4
:1024C0000348FEF710FA80210148FEF70CFA1CBD04
:1024D0000014024000BFFEE77047000070B5002105
:1024E00000230F22C4781CB3174C246804F4E06462
:1024F000C4F5E064C4F30721C1F10404E3B20A4166
:1025000044789C40E1B28478144021430C07210EAA
:102510000E4C05786155047804F01F050124AC4089
:1025200005786D11AD0005F1E025C5F8004109E021
:10253000047804F01F050124AC40054D067876119F
:1025400045F8264070BD00000CED00E000E400E01E
:1025500080E100E002490143024A11607047000037
:102560000000FA050CED00E07047000029B1064AB2
:1025700012680243044B1A6004E0034A1268824363
:10258000014B1A60704700003038024029B1064AFA
:1025900012680243044B1A6004E0034A1268824343
:1025A000014B1A60704700003838024029B1064AD2
:1025B00012680243044B1A6004E0034A1268824323
:1025C000014B1A60704700004038024029B1064AAA
:1025D00012680243044B1A6004E0034A1268824303
:1025E000014B1A607047000044380240F0B50021EA
:1025F00000220024022500260223324F3F6807F004
:102600000C0121B1042905D0082937D105E02E4F4E
:10261000076036E02D4F076033E02A4F3F1F3F68C9
:10262000C7F38056274F3F1F3F6807F03F036EB147
:10263000264FB7FBF3F7DFF88CC0ACF1040CDCF8E5
:1026400000C0CCF3881C07FB0CF40CE01E4FB7FB5A
:10265000F3F7DFF870C0ACF1040CDCF800C0CCF389
:10266000881C07FB0CF4174F3F1F3F68C7F3014757
:102670007F1C7D00B4FBF5F7076002E0124F076096
:1026800000BF00BF0F4F3F6807F0F0010909104F6E
:102690007A5C0768D74047600A4F3F6807F4E0510B
:1026A000890A0B4F7A5C4768D7408760054F3F68BF
:1026B00007F46041490B064F7A5C4768D740C76012
:1026C000F0BD0000083802400024F40040787D018D
:1026D000290000207047000030B500228B071C0F36
:1026E0000F2303FA04F20B4B8C1053F8243093435E
:1026F000084C8D1044F8253023468C1053F82430B4
:102700008C07240F00FA04F42343024C8D1044F884
:10271000253030BD083801400CB5002001900090F4
:102720003448006840F480303249086000BF3148C6
:10273000006800F4003000900198401C019000985F
:1027400018B90198B0F5A06FF1D12A48006800F4DB
:10275000003010B10120009001E0002000900098AE
:10276000012846D123484030006840F0805021497C
:10277000403108602048006840F480401E490860ED
:102780001C48083000681B4908310860084600688A
:1027900040F4004008600846006840F4A05008601B
:1027A0001648091F0860081F006840F08070091F64
:1027B000086000BF0F48006800F000700028F9D0E2
:1027C00040F205600E4908600A480830006820F0B1
:1027D00003000849083108600846006840F002001C
:1027E000086000BF03480830006800F00C000828AB
:1027F000F8D10CBD00380240007000401954400769
:10280000003C024010B5FEF775F90249087000F06F
:10281000B1F910BD1A00002030B5164800684FF419
:102820007A72B0FBF2F1B1F1807F01D301201DE09B
:1028300021F07F40401E4FF0E022506150170F22E0
:10284000002807DA13071D0E0B4B00F00F04241F9E
:102850001D5503E013071C0E084B1C5400BF00203D
:102860004FF0E022906107201061002008B100BF06
:10287000FEE730BD0000002018ED00E000E400E0BD
:1028800010B51548006840F47000134908601348FB
:10289000006840F001001149086000200F4908312C
:1028A00008600E4800680E4908400C4908600D4851
:1028B000091D0860081F006820F48020091F0860B7
:1028C000002006490C310860FFF726FF4FF000603A
:1028D00001498039086010BD88ED00E000380240F1
:1028E000FFFFF6FE103000241FB54FF4C060FFF765
:1028F00031FE1C208DF8000000208DF80100012021
:102900008DF802008DF803006846FFF7E7FD01210E
:102910000846FFF74BFE42F20F70029042F2CF00E2
:10292000ADF804000020ADF80C00ADF8060001A9D8
:102930004FF0804000F0DCF80121880700F0A2F899
:102940000121880700F0AAF801221146900700F043
:10295000C5F80121880700F0A4F81FBD10B50121BA
:10296000880700F0AAF800287CD00121880700F031
:1029700095F801203C49087031E03C483A49097813
:10298000405C01281DD13A4837490978405C401C19
:10299000C1B23748344A1278815433490978405CCF
:1029A0003B2817DD002132482F4A127881543148E4
:1029B0002D490978405C401C2E492B4A12788854D6
:1029C00008E000202A49284A127888542949264AD2
:1029D0001278885424480078401C23490870224803
:1029E00000781128C9DB24480078D8B3204823494F
:1029F0000978405C0A2190FBF1F201FB12002049AA
:102A0000085C40F4B8542046FDF7E3FD18481B4924
:102A10000978405C0A2190FBF1F01949085C40F408
:102A2000B0542046FDF7D5FD124814490978405CA2
:102A30000A2190FBF1F201FB12001149085C40F4FD
:102A4000A8542046FDF7C5FD0A480C490978405CAA
:102A50000A2190FBF1F00A49085C40F4A05420469A
:102A6000FDF7B7FD10BD000015000020C4010020D7
:102A700048000020590000201C0000201B000020FE
:102A80008439000821B1028842F08002028004E00B
:102A900002884FF67F731A4002807047CA43028251
:102AA000704721B1028842F00102028004E00288EE
:102AB0004FF6FE731A400280704730B50246002080
:102AC00000230024158A05EA0103958905EA01041B
:102AD00013B10CB1012000E0002030BD1AB1838990
:102AE0000B43838102E083898B438381704700001D
:102AF00000220288184B98420ED0184B98420BD0F7
:102B0000B0F1804F08D0164B984205D0154B984233
:102B100002D0154B984204D14FF68F731A404B8860
:102B20001A43124B984207D0114B984204D04FF6EB
:102B3000FF431A400B891A4302804B68C3620B881B
:102B40000385054B984202D0044B984201D18B7A01
:102B50000386012383827047000001400004014086
:102B60000004004000080040000C0040001000403D
:102B7000001400400448006820B103480068401E6B
:102B800001490860704700003C00002000B587B094
:102B900001210420FFF7EAFC01218804FFF706FD6C
:102BA00002208DF8180000208DF81A0001208DF801
:102BB0001B0000208DF819004FF40060059005A956
:102BC0001948FDF71AFE4FF48060059005A91648D4
:102BD000FDF713FE07220A211348FDF756FE0722D0
:102BE0000B211148FDF751FE4FF4E1300190002018
:102BF000ADF80800ADF80A00ADF80C00ADF8100013
:102C00000C20ADF80E0001A9084800F059F9012187
:102C1000064800F0ECF8012240F22551034800F08C
:102C200029F907B000BD000000080240004800403C
:102C300010B588B0044600202E49487248600872DA
:102C40002D48086001210420FFF790FC012120207D
:102C5000FFF7BCFC02208DF81C0000208DF81E0040
:102C600001208DF81F0000208DF81D00C020069067
:102C700006A92248FDF7C1FD082206211F48FDF7DD
:102C800004FE082207211D48FDF7FFFD02940020E5
:102C9000ADF80C00ADF80E00ADF81000ADF8140062
:102CA0000C20ADF8120002A9154800F009F9012125
:102CB000134800F09CF8012240F22551104800F022
:102CC000D9F84FF4A060FFF745FC47208DF80400C9
:102CD00000208DF805008DF8060001208DF8070012
:102CE00001A8FFF7FBFB0121054800F080F808B0C0
:102CF00010BD0000A40100206C000020000802406C
:102D00000014014010B540F22551214800F088F828
:102D100000283AD040F225511D4800F059F81C48CF
:102D200000F038F91B4909681A4A52688854194852
:102D3000406840B9174800680078552803D0002043
:102D40001449486010BD13484068012808D1114853
:102D500000684078532803D000200E494860F1E70E
:102D60000C484068401C0B494860084640680B28E6
:102D70000BD10846142201680748FDF721FA01200B
:102D80000649087000200349486000BFDAE70000E8
:102D900000140140A4010020B00100201600002012
:102DA00070B504460D460BE014F8011B074800F00F
:102DB000F6F800BF4021054800F025F80028F9D0BA
:102DC000281EA5F10105EFD170BD000000140140DF
:102DD00010B50022002340F66A14A14200D100BFC2
:102DE0000A1201249440A3B2DC43048010BD21B137
:102DF000828942F40052828104E082894DF6FF7399
:102E00001A408281704702460020B1F5007F00D150
:102E100000BF13880B400BB1012000E00020704779
:102E200070B50246002400230025002040F66A16F3
:102E3000B14200D100BFC1F3421501F01F030126CA
:102E400006FA03F3012D02D19689334006E0022DE4
:102E500002D1168A334001E0968A33400C120126D3
:102E600006FA04F41688344013B10CB1012000E0D6
:102E7000002070BDF0B50346002400260025002088
:102E800040F66A17B94200D100BF1846C1F3421498
:102E900001F01F06012707FA06F5012C01D10C30BD
:102EA00004E0022C01D1103000E014301AB10768A0
:102EB0002F43076002E00768AF430760F0BD0000E2
:102EC0002DE9FF4705460E460024A14600BFA04657
:102ED000B08900B100BF2C8A24F44054F088044328
:102EE0002C82AC8941F20C608443B088318908435C
:102EF000718908430443AC81AC8A24F44074B089DE
:102F00000443AC826846FFF771FB2048854202D03B
:102F10001F48854202D1DDF80C9001E0DDF80890F1
:102F2000A88900F4004040B109EBC90000EB09108A
:102F300031684900B0FBF1F707E009EBC90000EB8D
:102F4000091031688900B0FBF1F76420B7FBF0F09D
:102F500004012009642101FB1078A88900F40040D5
:102F600040B1322000EBC800B0FBF1F000F00700E8
:102F7000044308E0322000EB08106421B0FBF1F0BC
:102F800000F00F0004432C81BDE8FF8700100140D2
:102F90000014014001468888C0F308007047C1F35F
:102FA00008028280704700BFFEE702E008C8121FD7
:102FB00008C1002AFAD170477047002001E001C122
:102FC000121F002AFBD170472048007800F03F0014
:102FD0001F49087008460078072804DC0846007876
:102FE000C01E087030E01A4800780C2801DB012070
:102FF00000E00020164909780F2901DC012100E0DA
:103000000021084028B112480078C01F10490870FC
:103010001AE00F480078142801DB012000E00020AE
:103020000B490978172901DC012100E00021084043
:1030300028B1074800780B380549087004E00448B7
:1030400000780F380249087070470000190000200E
:103050001B00002008B568480078092862DA674834
:1030600065490978405C00283AD16548009062487B
:10307000007800EB40001022C2EB401083B25E48A3
:103080000078401E00EB40004FF6FF7202EA40114C
:1030900096220020FDF718FE5748007809281ED216
:1030A000DFE800F01D05080B0E1114171A0000F0E0
:1030B000ABFA14E000F018FB11E000F023FB0EE087
:1030C00000F02EFB0BE000F039FB08E000F044FBC1
:1030D00005E000F04FFB02E000F05AFB00BF16E0F5
:1030E000484800904448007800EB40001022C2EBB2
:1030F000401083B240480078401E00EB40004FF67D
:10310000FF7202EA401196220020FDF7DDFD3B48E8
:1031100039490978405CC0F101003849364A1278D3
:10312000885468E0354834490978405C80BB3448AD
:10313000009031480078093800EB4000502202EB43
:10314000401083B22C480078093800EB40004FF65D
:10315000FF7202EA40114FF4E1724FF49670FDF7EE
:10316000B3FD25480078093808281ED2DFE800F0B2
:1031700004070A0D1114171A00F018FB15E000F0EF
:1031800051FA12E000F05CFA0FE000F067FA0CE090
:103190000CE000F071FA08E000F07CFA05E000F0C5
:1031A00087FA02E000F092FA00BF19E0154800909B
:1031B00011480078093800EB4000502202EB401023
:1031C00083B20D480078093800EB40004FF6FF72DB
:1031D00002EA40114FF4E1724FF49670FDF774FD6E
:1031E000064805490978405CC0F10100C1B20348B6
:1031F000014A1278815408BD1B000020C401002040
:10320000943900085C97000808B54FF6FF7000235A
:1032100050A2512100904B20FFF7B6F84FF6FF70F7
:1032200000234DA2B12100904B20FFF7ADF84FF6DF
:10323000FF70002349A240F2111100904B20FFF7CC
:10324000A3F84FF6FF70002345A240F271110090E1
:103250004B20FFF799F84FF6FF70002341A240F290
:10326000D11100904B20FFF78FF84FF6FF7000232D
:103270003DA240F2312100904B20FFF785F84FF638
:10328000FF70002339A240F2912100904B20FFF7FC
:103290007BF84FF6FF70002335A240F2F121009039
:1032A0004B20FFF771F84FF6FF70002331A2512138
:1032B000009040F27710FFF767F84FF6FF70002399
:1032C0002DA2B121009040F27710FFF75DF84FF684
:1032D000FF70002329A240F21111009040F27710F4
:1032E000FFF752F84FF6FF70002325A240F271114C
:1032F0000090881DFFF748F84FF6FF70002321A2C9
:1033000040F2D111009040F27710FFF73DF84FF6F0
:10331000FF7000231CA240F23121009040F2771090
:10332000FFF732F84FF6FF70002318A240F2912108
:10333000009040F27710FFF727F84FF6FF70002358
:1033400013A240F2F121009040F27710FFF71CF831
:1033500008BD000050310000503200005033000022
:103360005034000050350000503600005037000047
:1033700050380000503900005031300050313100D9
:10338000503132005031330050313400503135006B
:10339000503136000349086000BF0249096800291E
:1033A000FBD170473C000020002106E0082100BF4F
:1033B0000A1EA1F1010399B2FAD1021EA0F1010087
:1033C000F4D1704710B5FDF793FAFDF7B9F810BDC9
:1033D00010B5FFF721FAFDF775FBFFF741F8FDF790
:1033E000EFFCFFF70FFA4FF6FF70FDF7FFFBFFF75B
:1033F000E9FF40F20140FDF7ECF8FFF7C7FB4FF49F
:103400001650FFF715FC002000F0DEF91E2000F03A
:10341000EDF9FFF769FA00F003F8002010BD000095
:1034200008B54FF6FF70FDF7E1FB4FF6FF70002384
:1034300010A2642100900846FEF7A6FF4FF6FF7029
:10344000002313A2782100906420FEF79DFF0FE077
:10345000FDF750FB1449087008460078022801D196
:1034600000F024F810480078032801D100F07CF81F
:10347000EEE70000312EB0B4CFC25332B2E9BFB490
:10348000B8F7B3E4B5E7BFDAC7E9BFF6000000005C
:10349000322EB0B4CFC25333B9DCC0EDB8F7B3E4C9
:1034A000B5E7BFDA000000001A00002008B54FF6AB
:1034B000FF70FDF79BFB4FF6FF70002320A24FF437
:1034C000C87100909720FEF75FFF4FF6FF70002352
:1034D00020A24FF4D2710090D220FEF755FF00F0E9
:1034E000A9F92CE0FDF706FB1C490870FFF78CFEDC
:1034F000FF201B49087019E0FDF7FCFA1749087016
:1035000008460078012806D100201649087000F00E
:103510007FF9FFF785FF11480078032806D10020C6
:103520001049087000F074F900F01EF80C4800789B
:10353000FF28E1D001200B490870FFF745FDD1E7D6
:10354000B5E3BBF7B3E4B5E7D7AEB2E9BFB4B3E4D4
:10355000B5E70000CAB1BCE4000000001A0000207A
:10356000190000201C00002008B54FF6FF70FDF781
:103570003DFB4FF6FF7000231BA24FF4C871009073
:103580009720FEF701FF4FF6FF7000231BA24FF4B8
:10359000D2710090D220FEF7F7FE00F04BF921E047
:1035A000FDF7A8FA16490870FFF72EFEFF2015490F
:1035B00008700FE0FDF79EFA114908700846007880
:1035C000012801D1FFF72CFF0D480078022801D116
:1035D000FFF76CFF0B480078FF28EBD0FFF7F4FCF7
:1035E000FFF738FDDCE70000B5E3BBF7B3E4B5E770
:1035F000D7AEB6CFB5E7BBF2C9CF0000B5E7000044
:103600001A000020190000201CB504A103C9CDE94F
:10361000000106216846FFF7C3FB1CBD7E04420281
:1036200001EF00001CB504A103C9CDE9000106218A
:103630006846FFF7B5FB1CBD7E04420210EF000098
:103640001CB504A103C9CDE9000106216846FFF7B6
:10365000A7FB1CBD7E04420211EF00001CB504A1B3
:1036600003C9CDE9000106216846FFF799FB1CBD9F
:103670007E04420212EF00001CB504A103C9CDE98B
:10368000000106216846FFF78BFB1CBD7E04420249
:1036900013EF00001CB504A103C9CDE90001062108
:1036A0006846FFF77DFB1CBD7E04420214EF00005C
:1036B0001CB504A103C9CDE9000106216846FFF746
:1036C0006FFB1CBD7E04420215EF00001CB504A177
:1036D00003C9CDE9000106216846FFF761FB1CBD67
:1036E0007E04420216EF00001CB504A103C9CDE917
:1036F000000106216846FFF753FB1CBD7E04420211
:1037000002EF00001CB504A103C9CDE900010621A8
:103710006846FFF745FB1CBD7E04420203EF000034
:103720001CB504A103C9CDE9000106216846FFF7D5
:1037300037FB1CBD7E04420204EF00001CB504A14F
:1037400003C9CDE9000106216846FFF729FB1CBD2E
:103750007E04420205EF00001CB504A103C9CDE9B7
:10376000000106216846FFF71BFB1CBD7E044202D8
:1037700006EF00001CB504A103C9CDE90001062134
:103780006846FFF70DFB1CBD7E04420207EF0000F8
:103790001CB504A103C9CDE9000106216846FFF765
:1037A000FFFA1CBD7E04420208EF00001CB504A114
:1037B00003C9CDE9000106216846FFF7F1FA1CBDF7
:1037C0007E04420209EF00001CB5044605A103C9AE
:1037D000CDE900018DF8034005216846FFF7E0FAC6
:1037E0001CBD00007E030900EF0000001CB504466C
:1037F00005A103C9CDE900018DF803400521684604
:10380000FFF7CEFA1CBD00007E030600EF000000AB
:1038100010B54FF4B850FCF7DCFE4FF4B050FCF795
:10382000D8FE4FF4A850FCF7D4FE4FF4A050FCF79C
:10383000D0FE10BD70B52DED048B82B000240020A9
:103840004749087082E09FED470A474880ED000A2B
:103850006DE0601CC4B24548005D58BB4448424D11
:10386000009095ED000AF7EE000A30EE200ADFED39
:10387000410A20EE200ABCEEC00A10EE105AABB28C
:10388000374D2D786D1C962615FB06F5AAB2364DE0
:1038900095ED000ADFED370A20EE200ABCEEC00AE3
:1038A00010EE105AA9B22E4D2D7815FB06F0FDF73B
:1038B0000BFA2AE030482C4D009095ED000AF7EE07
:1038C000000A30EE200ADFED2B0A20EE200ABCEEC3
:1038D000C00A10EE105AABB2214D2D786D1C962601
:1038E00015FB06F5AAB2204D95ED000ADFED210A81
:1038F00020EE200ABCEEC00A10EE105AA9B2184DF4
:103900002D7815FB06F0FDF7DFF917480068FCF786
:1039100010FD41EC190B9FED190B53EC102BFCF72C
:1039200061FC41EC180BFCF717FD0F4908600E48CD
:1039300090ED000AF2EE020AB4EEE00AF1EE10FA9F
:1039400087D307480078801C054908700448007830
:103950000328FFF678AF02B0BDEC048B70BD000009
:10396000280000200000000024000020C4010020E6
:103970005C9700080000A0429439000833333333C9
:103980003333F33F3F065B4F666D7D077F6F777C78
:10399000585E7971001096005000011B110311034D
:1039A0001103110311031103110311031103110377
:1039B0001103110311031103110311031103110367
:1039C0001103110311031103110311031103110357
:1039D0001103110311031103110311031103110347
:1039E0001103110311031103110311031103110337
:1039F0001103110311031103110311031103110327
:103A00001103110311031103110311031103110316
:103A10001103110311031103110311031003100308
:103A200011031103100310031103320311033103B7
:103A3000F1021103100310033103310311031003CA
:103A40001103110331035203F102F10211031103B7
:103A50001103510311033103110311031103110366
:103A600011031103110311031103110311031103B6
:103A70001103110311031103110331033103310346
:103A80003103310311031103110311033103300317
:103A90003003300311031103110311033103310308
:103AA00031033103310331031103110331033103B6
:103AB00031033103310331033103310311031103A6
:103AC0001103110311031103110311031103110356
:103AD0001103110311031103110311031103110346
:103AE0001103110311031103110311031103110336
:103AF0001103110311031103110311031103110326
:103B00001103110311031103110311031103110315
:103B10001103110311031103110311031103110305
:103B200011031103110311031103110311031103F5
:103B300011031103110311031103110311031103E5
:103B400011031103110311031003100311031103D7
:103B500010031003110331033103F0021103110BA1
:103B600010033103510311033103CF02100B310B4A
:103B7000F00A100B100B100B110331031103F002AC
:103B80001103520311031103110311031103110354
:103B90001103110311031103110311031103110385
:103BA00011031103110311033103310331033103F5
:103BB00011031103110311033103310331033103E5
:103BC00011031103110311033103310331031103F5
:103BD0003103310311031103310331033103310385
:103BE0003103110311031103110311031103110315
:103BF0001103110311031103110311031103110325
:103C00001103110311031103110311031103110314
:103C10001103110311031103110311031103110304
:103C200011031103110311031103110311031103F4
:103C300011031103110311031103110311031103E4
:103C400011031103110311031103110311031103D4
:103C500011031103110311031103110311031103C4
:103C600011031103110311031103110311031103B4
:103C70001103310310033103310331033103100306
:103C80001103110331031103120311031103310353
:103C9000100330033003300B311B8E12CA09A909FF
:103CA0002B12EF220F0B10033103310311033103E9
:103CB0003103310311031103110311031103110324
:103CC0001103110311031103110311031103110354
:103CD00011031103110311033103310331033103C4
:103CE00011031103310331033103310311031103B4
:103CF00031033103310311031103110311031103C4
:103D000031033103110311031103110311031103D3
:103D10001103110311031103110311031103110303
:103D200011031103110311031103110311031103F3
:103D300011031103110311031103110311031103E3
:103D400011031103110311031103110311031103D3
:103D500011031103110311031103110311031103C3
:103D600011031103110311031103110311031103B3
:103D700011031103110311031103110311031103A3
:103D80001103110311031103110311031103110393
:103D90001103110311031103110311031103310363
:103DA00031033103310331031103110311031103F3
:103DB0003103510311031103F102F0020F0B0F0B3A
:103DC000EF12101BEA0164000D4B3174E408E500AA
:103DD000EE12100B11031103110310033103100332
:103DE0001103110311031103110311031103110333
:103DF0001103110311031103110311031103110323
:103E00001103110311033103300330033003110395
:103E10003103310331031103110331033003300344
:103E200031031103110311031103110311031103D2
:103E300011031103110311031103110311031103E2
:103E400011031103110311031103110311031103D2
:103E500011031103110311031103110311031103C2
:103E600011031103110311031103110311031103B2
:103E700011031103110311031103110311031103A2
:103E80001103110311031103110311031103110392
:103E90001103110311031103110311031103110382
:103EA0001103110311031103110311031103110372
:103EB0001103110311031103110311031103110362
:103EC0001103110311031103110311033103310312
:103ED00031033103110311031003100351033003A5
:103EE0000F033013EF120F230F2B8D224B22C9210A
:103EF00083003495FEF7FCF7FEFF65198801101B5F
:103F000011031103110331031103110311031103F1
:103F10001103110311031103110311031103110301
:103F200011031103110311031103110311031103F1
:103F30001003300330033003100311031103110386
:103F40001103110311031103300330033103110373
:103F50001103310311033103310331031103110341
:103F600011031103110311031103110311031103B1
:103F700011031103110311031103110311031103A1
:103F80001103110311031103110311031103110391
:103F90001103110311031103110311031103110381
:103FA0001103110311031103110311031103110371
:103FB0001103110311031103110311031103110361
:103FC0001103110311031103110311031103110351
:103FD0001103110311031103110311031103110341
:103FE0001103110311031103110311031103110331
:103FF0001103110311031103110311031103110321
:104000001103110311033003500350034F134B02EC
:10401000A90168090701E600E608E5088300D6B5AE
:10402000FDF7BCF7FEFF851967011013110332037A
:104030003103110331033103110311031103110380
:1040400011031103110311031103110311031103D0
:1040500011031103110311031103110310033003A2
:104060003003300310031103110311031103110373
:104070001103110330033003310311033103310302
:104080003103310311031103110311031103110350
:104090001103110311031103110311031103110380
:1040A0001103110311031103110311031103110370
:1040B0001103110311031103110311031103110360
:1040C0001103110311031103110311031103110350
:1040D0001103110311031103110311031103110340
:1040E0001103110311031103110311031103110330
:1040F0001103110311031103110311031103110320
:10410000110311031103110311031103110311030F
:1041100011031103110311031103110311031103FF
:1041200011031103110311031103110311031103EF
:104130001103310330030F03CD1205012611E508E9
:10414000E600070168016701C8114200AE6B928C5E
:10415000E729A300EE12300BF10212031103110341
:10416000310311031103110311031103110311038F
:10417000110311031103110311031103110311039F
:10418000110311031103110331033103310331030F
:10419000310331031103110311031103110311033F
:1041A00031033103310331033103110311031103CF
:1041B00011031103110311033103310331033003E0
:1041C00031033103310311031103110311031103EF
:1041D000110311031103110311031103110311033F
:1041E000110311031103110311031103110311032F
:1041F000110311031103110311031103110311031F
:10420000110311031103110311031103110311030E
:1042100011031103110311031103110311031103FE
:1042200011031103110311031103110311031103EE
:1042300011031103110311031103110311031103DE
:1042400011031103110311031103110311031103CE
:1042500011031103110310031103110311031103BF
:104260001103300B2F2306010419E4186C32CE2AF7
:104270000F230F23EE226C1A67016709C911EE2282
:104280000F0B110312031103310331031103310327
:10429000110311031103110311031103110311037E
:1042A000110311031103110311031103110311036E
:1042B000310311033103310331033103310331037E
:1042C000110311031103110311031103110311034E
:1042D000110311031103110311031103110311033E
:1042E000110311033103310331033103310331036E
:1042F00031031103110311031103110311031103FE
:10430000110311031103110311031103110311030D
:1043100011031103110311031103110311031103FD
:1043200011031103110311031103110311031103ED
:1043300011031103110311031103110311031103DD
:1043400011031103110311031103110311031103CD
:1043500011031103110311031103110311031103BD
:1043600011031103110311031103110311031103AD
:10437000110311031103110311031103110311039D
:104380001003300311031103120312031103110B65
:10439000EF1AC911E418E4182B1ACF1AF00AF00228
:1043A000F00A100B100B100B1013100B110311035C
:1043B00011031103310331033103110311031103FD
:1043C000110311031103110311031103110311034D
:1043D000110311031103110311033103120312031B
:1043E00011031203110331033103110311031003ED
:1043F000110310031103110311031103110311031E
:1044000011031103110331031103110311033103CC
:10441000110311031103310311033103310311039C
:1044200011033103310311031103110311031103AC
:1044300011031103110311031103110311031103DC
:1044400011031103110311031103110311031103CC
:1044500011031103110311031103110311031103BC
:1044600011031103110311031103110311031103AC
:10447000110311031103110311031103110311039C
:10448000110311031103110311031103110311038C
:10449000110311031103110311031103110311037C
:1044A000110311031103110311031103300330032E
:1044B00010031103120312031203F102F0126D1A1A
:1044C000E410E4108909101BF00211031103110319
:1044D00051033103110311031103110311031103DC
:1044E00031033103110311031103110311031103EC
:1044F000110311031103110311031103110311031C
:104500001103110311033103110332031103F002EC
:104510001003EF02CE02EE02EF020F030F030F03B0
:104520000F03EF02EF02CE02EF02EF02EF020F03E2
:104530000F030F030F030F03EE02EE020F030F032F
:104540000F03CE02100310031103110311033103F3
:10455000310311031103110311031103110311039B
:1045600011031103110311031103110311031103AB
:10457000110311031103110311031103110311039B
:10458000110311031103110311031103110311038B
:10459000110311031103110311031103110311037B
:1045A000110311031103110311031103110311036B
:1045B000110311031103110311031103110311035B
:1045C000110311031103110311031103110311034B
:1045D00011031103110331033003300330031003BF
:1045E00011031103110311031103101BE40804113B
:1045F00006010F23D00A31033103300331033103A5
:1046000011033103310331031103110311031103AA
:1046100011031103110311031103110311031103FA
:1046200011031103110311031103110311031103EA
:104630001103310331031003EF027334354D144D70
:10464000144D3455134D144D144D144D1445344D23
:104650003455344DF34CB244B244B244B23CB23C53
:10466000B23CB13CB23CB144B244B23CB244B344BB
:1046700093442E0B10031103110331033103110373
:10468000110311031103110311031103110311038A
:10469000110311031103110311031103110311037A
:1046A000110311031103110311031103110311036A
:1046B000110311031103110311031103110311035A
:1046C000110311031103110311031103110311034A
:1046D000110311031103110311031103110311033A
:1046E000110311031103110311031103110311032A
:1046F000110311031103110311031103110311031A
:10470000110331033103300330031003110311038C
:10471000110311031103101367112411E5008C22FA
:104720000F0B100330033103310331033103310325
:104730003103310311031103110311031103110399
:1047400011031103110311031103110311031103C9
:104750001103110311031103110311031103310399
:104760001003500BAD023976D66D166EF56DD46D13
:10477000F575D56DF575166EF56DF56DF56DD46D38
:1047800015767365325D525D5255525572555255CC
:10479000525D725D525D525D3255535D745D5234AF
:1047A0000F0311031103110311031103110311036B
:1047B0001103110311031103110311031103110359
:1047C0001103110311031103110311031103110349
:1047D0001103110311031103110311031103110339
:1047E0001103110311031103110311031103110329
:1047F0001103110311031103110311031103110319
:104800001103110311031103110311031103110308
:1048100011031103110311031103110311031103F8
:1048200011031103110311031103110311031103E8
:10483000310330033003300331033103110311031B
:104840001103F0122A22E4080411C81130131003D6
:10485000100331033003300331031003310311031C
:104860001103110311033103310331031103110348
:104870001103110311031103110311031103110398
:1048800011031103110311031103310310030F036B
:10489000EE02396EF66DB365F475B26D926D726DA0
:1048A000726D936D936D926DB26D926DB36D115D7E
:1048B000F0541055105510551055F0541055EF5434
:1048C00010551155725D53555355312C0F0311037B
:1048D0001103110311031103110311031103110338
:1048E0001103110311031103110311031103110328
:1048F0001103110311031103110311031103110318
:104900001103110311031103110311031103110307
:1049100011031103110311031103110311031103F7
:1049200011031103110311031103110311031103E7
:1049300011031103110311031103110311031103D7
:1049400011031103110311031103110311031103C7
:104950001103110311031103110311033103310377
:104960003103310331033103110311031103F00A41
:10497000CD2AE40004192509501B3103110331032A
:10498000100310033103100311031103110311036A
:1049900010033003310331033103110311031103F9
:1049A0001103110311031103110311031103110367
:1049B000110311031103310331033003CD02186ECB
:1049C000B565D46DB26DB59617AFF7AEF7A6F8A67C
:1049D00018A718A7F8A618A7F8A6D79EB796D79E27
:1049E000D796B79ED79ED79EB69EF79E189F3165E5
:1049F000315D32559455502C0F03110311031103EF
:104A00001103110311031103110311031103110306
:104A100011031103110311031103110311031103F6
:104A200011031103110311031103110311031103E6
:104A300011031103110311031103110311031103D6
:104A400011031103110311031103110311031103C6
:104A500011031103110311031103110311031103B6
:104A600011031103110311031103110311031103A6
:104A70001103110311031103110311031103110396
:104A80001103110311031103110331031103110366
:104A900031031103110311033103100B0F234701DD
:104AA000E410E408CE1A100B310311031103310393
:104AB0001003110331033203110311031003100318
:104AC00031033103310311031103110311031103E6
:104AD0001103110311031103110311031103110336
:104AE0001103310310033003EE02396ED56DD46D1E
:104AF000916DFAC7FBD7FCDFFCDFFCDFFDDFFDDFDC
:104B0000FDDFFDDFFDDFFDDFFDDFFDDFFDDFFDE7BD
:104B1000FCE7FCE7FCE7FCDFFDDF7175105D31555C
:104B20009355502C0F03110331031103110311038B
:104B300011031103110311031103110311031103D5
:104B400011031103110311031103110311031103C5
:104B500011031103110311031103110311031103B5
:104B600011031103110311031103110311031103A5
:104B70001103110311033103310311031103110355
:104B80001103110311031103110311031103110385
:104B90001103110311031103110311031103110375
:104BA0001103110311031103110311031103110365
:104BB0001103110311033103110311031103110335
:104BC0001103F102110310031013EA090511E51096
:104BD0002B12CF0A1103F102310331031003310309
:104BE00031033203110311031003100311033103C6
:104BF00011033103110311031103110311031103F5
:104C000011033103310311031103110311031103C4
:104C100011033003AD02386ED56DD46D716D99BF3F
:104C2000FBDFFBDF5ABFB8A6B99EB99EBA9EBA9EFB
:104C3000B996DA9EB996B996B99EB9A6989E97A6E6
:104C4000FCE7DADFFCDF7175F05C525D93553024D0
:104C50000F03110331031103110311031103110396
:104C600011031103110311031103110311031103A4
:104C70001103110311031103110311031103110394
:104C80001103110311031103110311031103110384
:104C90001103110311031103110311031103310354
:104CA0001003100310031003310311031103110348
:104CB00011031103310331031103310331033103B4
:104CC0003103310311031103110311031103110304
:104CD000110331033103100331031003F1021103F7
:104CE00031033103310331031103110311031103A4
:104CF000110310031003CE1AC40805114701302315
:104D0000D10A12033103300311033103310331039C
:104D10003103310331033103110311033203320331
:104D20001103110311031103110331033103300384
:104D300030031103110311031103110311031003B5
:104D4000CC02376ED565F46D726DBAC7FADFFCDF41
:104D5000587E5324951C9514961C961C96149614F4
:104D600096149614951C951C951C5234FEE7DAE7B0
:104D7000FCDF7175305D515D735551240F031103D4
:104D80001103110311031103110311031103110383
:104D90001103110311031103110311031103110373
:104DA0001103110311031103110311031103110363
:104DB0001103110311031103110311031103110353
:104DC0001103110311031103310311031003310304
:104DD00031033103110331033103110311031103B3
:104DE00011031103310311033103310311031103C3
:104DF00011031103110331031103110331031103D3
:104E00003103310310035103110331031003310344
:104E100011033103110311031103310311031003B3
:104E200010030F13060905112501CD22D00A120324
:104E30001103300331031103100311033103310354
:104E40003103110311031103320331031103110361
:104E50001103110311033103310330033003100335
:104E6000110311031103110311031003CC02376E58
:104E7000F565F46D526DBAC7FAE7FCD79B769614C8
:104E8000F80CF904FA04D904F904F904F904F90452
:104E9000F804F80CF8049524FEDFD9E7FCDF7175FF
:104EA000315D32557355512C0F031103110311035A
:104EB0001103110311031103110311031103110352
:104EC0001103110311031103110311031103110342
:104ED0001103110311031103110311031103110332
:104EE0001103110311031103110311031103110322
:104EF0001103110331033003310331031003110394
:104F0000110311031103F1021103310331033103C2
:104F10003103F10231031103310331031103110392
:104F20003103510351031103100310031003310324
:104F30003103100331033103100331031103320332
:104F40001203120310033003F102110311031013B3
:104F50008811061105092B1AF112120310033003F0
:104F60003103110310031103110311031103110382
:104F700031033103310331033003100310031103F4
:104F800031033103310331033003100311031103E3
:104F90003103310311033003EC02386EF565F46D13
:104FA000516DBAC7F9E7FCD79B769614F80CF80454
:104FB0001905F90419051905190519051805F80445
:104FC000F904B524FDDFD9E7FCE75175115D3255D1
:104FD0007355502C0F031103110311031103110317
:104FE0001103110311031103110311031103110321
:104FF0001103110311031103110311031103110311
:105000001103110311031103110311031103110300
:1050100011031103110311031103110311033103D0
:105020001003100330031003F002310331031103A6
:1050300010031003100310031003100311031103D6
:1050400010031003100310031003100310030F03C9
:10505000F0025103100310031103F0021003300398
:10506000100330033003100310031103F202F102A6
:105070001003300311031103110310132C1A060936
:1050800005118811311B1203100351033003300343
:105090001103110311031103110311033103300331
:1050A00031033003300330031003110311033103C4
:1050B0003103310330031003110331033003300394
:1050C00011033003ED02386EF565F46D516DB9C70B
:1050D000FAE7FCDF9B76B614180D190519051905BA
:1050E0001905190519051905F804F804F904B5247A
:1050F000FDDFD9E7FCE75175115D32557355502C32
:105100000F03110311031103110311031103110301
:1051100011031103110311031103110311031103EF
:1051200011031103110311031103110311031103DF
:1051300011031103110311031103110311031103CF
:105140001103110311031103110331033003100381
:105150000F03100310031003EF02EF02EF020F0B17
:105160000F030F030F030F03EF020F03EF02300BC8
:105170000F03EF0210030F030F032F0330030F037E
:10518000EF02EF02CF02F00A1003EF023003100328
:10519000EF020F03EF02F002120332031003300399
:1051A000100331031103F00ACE2A0601E418E508C2
:1051B000101B1103100330033003310311031103DB
:1051C00011031103110311033103310330033003C1
:1051D0003003300311031103310331033103310371
:1051E00031031103110331033003300311031003A2
:1051F000CD02386EF565F36D516DB9C7FAE7FDDF85
:105200009B769614F8041905D904F90419051905B3
:10521000F904F904F904F9041905D51CFEDFD9E7EE
:10522000FCE75175315D52557355302C0F03110356
:1052300011031103110311031103110311031103CE
:1052400011031103110311031103110311031103BE
:1052500011031103110311031103110311031103AE
:10526000110311031103110311031103110311039E
:105270001103110311031003EF027013901B8F1B16
:10528000B01BB01BAF1BD01BAF1BAF23AF1BAE1BA4
:10529000AF1BAF1B8F1BAF1BB023AF1BD01BD01B93
:1052A0008F1BAF1BD023AF1BAF1B6F13B0239023FB
:1052B0009023B1238F1BB01B901B901B8F1BD023FF
:1052C0008F1B901B1003F0023003300310031103F7
:1052D0001103F00230234801E518C4088E12100BA8
:1052E00010033003300331031103110311033103A1
:1052F0001003100331033103310330033003300353
:10530000110331033103310331033103110311035D
:10531000110331033103310311031003CD02386E41
:10532000F565F36D516D99C7DAE7FCDF797E73247B
:105330009514D6149714971CB514B5149614961496
:1053400097149614B6149224FDDFD9E7FCDF51754B
:10535000315552557355302C0F03110311031103AE
:10536000110311031103110311031103110311039D
:10537000110311031103110311031103110311038D
:10538000110311031103110311031103110311037D
:10539000110311031103110311031103110311036D
:1053A000110310036F1B9244B1446F3C8F448E3C39
:1053B000AE3C8E3CB0446E448D44AD448E3CAF4414
:1053C000AF448F44AF446E3C8E3CAF44AE44AF44D8
:1053D0008F446F3C4F444F442F444F44914470449A
:1053E0004E3C6F440E444F4C8F448F3CAF44B0440E
:1053F00011242F0330033103100311031103F102B1
:1054000011132B12E410E410EA091013F002100338
:10541000110311031203110331033103310330036C
:105420003003300311031103310330033003310320
:10543000310331031103110311031103110311038C
:105440003103310331033003CD023876D465D36D97
:10545000516D99CFDAE7DAE7F9AED575F56D1676C5
:10546000D775F775F675F675D775D875D875D7757C
:10547000F775D57DFBE7D9DFFCDF716D31555255EE
:105480007355502C0F031103110311031103110362
:10549000110311031103110311031103110311036C
:1054A000110311031103110311031103110311035C
:1054B000110311031103110311031103110311034C
:1054C00011031103110311031103110311030F033E
:1054D0008E1B90448E44CD4C6D556C558C556D553E
:1054E000CC448B442B558C5D6C554C552D55AB44A1
:1054F000AB446D5D6D554C558C5DCB4C6D44316D41
:1055000036961596369636966E4C2D3C158E3596FB
:10551000169E1596B3752C3C8D44AF445034ED0265
:105520000F033103100311031103F102F102EF2203
:10553000C408041926010F23F00AF1023203F10214
:10554000120312033103310331031003300310033C
:10555000110311031103310330033103310311032C
:105560001103110312031203110311033103310359
:1055700031033003CC023876D46DD36D526D9AC7A7
:10558000DAE7D9E7FBDFFBD7FBDFFCD7FDDFFDDF89
:10559000FCD7FCD7FDDFFEDFFEE7FEEFFDEFFCEF03
:1055A000DAE7D9DFFCDF7275315552557355502C4F
:1055B0000F0311031103110311031103110311034D
:1055C000110311031103110311031103110311033B
:1055D000110311031103110311031103110311032B
:1055E000110311031103110311031103110311031B
:1055F000110311031103110311030F03AD1BAE3C83
:10560000AC3CCE5D6C6E6A668A666B6ECD5DA93C05
:105610006C6E6A6E6A666B666E6E0945A94D8C6E1D
:105620004A666A666B6E4D6E682BFFE7FEE7FEEF1B
:10563000FEEFFFEF727DD06CFFEFDFEFDFEFFFEFEC
:10564000FFDFEC3B8E448F44503C6E13EE021003A0
:1056500031031103F1023203F00230234709E51050
:10566000E5008D22F10AF20211031103F102120387
:10567000310310033103110310033103110311032C
:105680001103310331031103F1021103F10211037C
:10569000F10211031103F1021003100310032F0391
:1056A000CC02176E156ED46D3165DBC7FADFB9DF3A
:1056B000F9DFF9DFF9DFF9DFD9D7FAD7F9CFF9D771
:1056C000FBDFBBE79BF79BFF3AFF5AFFBAF7B9D75F
:1056D000FDE7316D115D52557355302C0F031103E9
:1056E000110311031103110311031103110311031A
:1056F000110311031103110311031103110311030A
:1057000011031103110311031103110311031103F9
:1057100011031103110311031103110311031103E9
:105720001103110311032F03AD1BCE3CAB3CCC5D29
:105730006A66876687666966EC5DA7348A6E676607
:10574000876668666C6E073DC84D896689666766C0
:1057500068664B6E4733FFE7BEEF9DF7BEF7FEEF7F
:10576000327D906CFFF79FF77FF7BFEFFFE70D44A7
:105770006E446E449044913CB344B11B1003F1025B
:105780003103310310031013CA11E5102511291A32
:10579000CC0A2D030D032E032F030F034F032F03FA
:1057A000300311031003110331031103110311031B
:1057B000310331031103100330030F030F03CE0233
:1057C0000E030F03EF02300310033003CC023876D0
:1057D000D465D46D936D9ABFFADFF9E7D3B62B7514
:1057E000EA7454BFF9E7F9DF09656B6D109EDAEFD3
:1057F000BBFF8B9BE9AAE99ABAF7FADFFCDF717568
:10580000315D52557355512C0F03110311031103D0
:1058100011031103110311031103110311031103E8
:1058200011031103110311031103110311031103D8
:1058300011031103110311031103110311031103C8
:1058400011031103110311031103110311031103B8
:1058500011030F03AE1BAF3C8C3CAC5D69668666E2
:1058600086666866EC5DA7348A6E666666666866FC
:105870008C6E073DC85569666866876667664B6EBD
:105880004833FFEF9EEF7DF77EF7FFEF527DD06C40
:10589000FFF77EEF9EF7BEEFFEDFEC436E448E44D3
:1058A0006E448F446F44D24CCE0211033003300358
:1058B00031031013AD22E4000411E3192E6E2835D4
:1058C000AA2468034A034B034A030A03ED02300388
:1058D0001103F002110331031103320311033003EA
:1058E0003003ED028D135345934DB455B455712CCF
:1058F000CC020F03F002310BCD02386EF565F46D6A
:10590000726DBAC7FADFF9E7D3B62B75EA6C55C7E3
:10591000FAE7D8DF09658A6D50A6FAF77AFF8C9B03
:10592000E9A22AA399F7FADFFBE75075105D5255FB
:10593000545D102C0F031103110311031103110304
:1059400011031103110311031103110311031103B7
:1059500011031103110311031103110311031103A7
:105960001103110311031103110311031103110397
:1059700011031103110311031103110311030F0389
:105980008F1B903C6B34AC5D696E8766A66688663B
:10599000CC5D87348A6E8666866688668C6EE63C49
:1059A000A74D89666866886687664A6E2833FFEF6A
:1059B0009EF77EFF7EF7FFF73275B064FFF77EF744
:1059C0007DEFDEEFFEE7EC434D444D3C6D3C4D3C3E
:1059D0004D447044EF0A3203300310031103CF0229
:1059E0000F2B2601E310C000CB6D2B562F56B14D67
:1059F000324533455245165E3445ED0210033103FE
:105A0000300311033203110311033003CC02134599
:105A100094554B0B2A0309030A032F247876CC02F2
:105A20001003F002CD02586EF565F46D5265BAC7E9
:105A3000FADFF8D7F9DFF9DFF9DFF9DFB9DFD9DF0E
:105A4000F8D7F7D7F9E798DF7AEF9BFF5AFF59FFAE
:105A5000DAEFFAD7FBDF5075315D525533553134EB
:105A60000F03110311031103110311031103110398
:105A70001103110311031103110311031103110386
:105A80001103110311031103110311031103110376
:105A90001103110311031103110311031103110366
:105AA0001103110311031103110310036E134F347B
:105AB0002A2CAB556A6E8766866689668B55672C7D
:105AC0008A6E8766876668668C6EC5346645896EA1
:105AD00068668766675E4B6EE722DFE79EEF7EFFB4
